:100000000C942A010C945B010C945B010C945B0131
:100010000C945B010C945B010C945B010C945B01F0
:100020000C945B010C945B010C945B010C945B01E0
:100030000C945B010C945B010C945B010C945B01D0
:100040000C945B010C945B010C945B010C945B01C0
:100050000C945B010C945B010C945B010C946305A4
:100060000C945B010C94D7050C94AD050C945B01CA
:100070000C945B010C945B010C945B010C945B0190
:100080000C945B010C945B010C945B010C945B0180
:100090000C945B010C945B010C945B010C945B0170
:1000A0000C945B010C945B010C945B010C945B0160
:1000B0000C945B010C945B010C945B010C945B0150
:1000C0000C945B010C945B010C945B010C945B0140
:1000D0000C945B010C945B010C945B010C945B0130
:1000E0000C945B010C94BD020C94CB010C94AC01FC
:1000F0000C9402020C94E2010C94C3010C94C7010D
:100100000C949B020C94EA010C94F0010C94F502FF
:100110000C94DC010C9442030C94AF020C940D0679
:100120000C94F4010C9409050C94B1010C945F0239
:100130000C94D8010C94E6010C94D2010C94F801B3
:100140000C94CF010C94FE010C948C0200000A0B5D
:1001500002090C0D0E080703040100000000000056
:10016000000000000000000000000000000000008F
:10017000000000000000000012111000000000004C
:10018000000000000000000000000000000000006F
:10019000000000002200250028002B002E00310066
:1001A000340002010000050108010B0100002100DC
:1001B000240027002A002D00300033000101000038
:1001C000040107010A0105050505070508080808D7
:1001D000020202020A0A08080404040401010101DF
:1001E00001010101030303030303030304070707DA
:1001F0000C0C0C0C0C0C0C0C02020202060606067F
:10020000060606060B0B0B0B0B0B0B0B010210204B
:10021000200808102040102040800201020108043C
:1002200002010102040810204080804020100804D0
:100230000201800402018040201008040201080429
:10024000020101020408102040800102040810206D
:1002500040800D0611241FBECFEFD1E2DEBFCDBF1F
:1002600000E00CBF12E0A0E0B2E0E2E2F9E100E061
:100270000BBF02C007900D92A637B107D9F724E053
:10028000A6E7B2E001C01D92A735B207E1F711E081
:10029000CAE2D1E000E006C021970109802FFE01EB
:1002A0000E94340BC932D10780E00807A9F70E94E9
:1002B0005A060C948F0C0C94000090E0FC01E45F53
:1002C000FD4F24918A539E4FFC018491882399F01D
:1002D00090E0880F991FFC01E455FE4FA591B49161
:1002E000FC01EE56FE4F859194918FB7F894EC91F6
:1002F000E22BEC938FBF0895282F30E0F901E45BE7
:10030000FE4F9491F901E45FFD4F44912A533E4F13
:10031000F9012491222309F435C0992311F1915058
:100320009231F8F4E92FF0E08827E656FE4F8F4F20
:100330000C94340BCB01CF01AC01C301C701B10157
:10034000D201D801DC01E201E601EA01F001F40189
:10035000B101F801FE010202809180008F77809345
:100360008000E22FF0E0EE0FFF1FEE56FE4FA5914A
:10037000B4918FB7F894EC91611148C040954E2329
:100380004C938FBF0895809180008F7DE8CF80913E
:100390008000877FE4CF84B58F7784BDE2CF84B5BA
:1003A0008F7DFBCF8091B0008F778093B000D9CF45
:1003B0008091B0008F7DF9CF809190008F778093EE
:1003C0009000CFCF809190008F7DF9CF80919000E9
:1003D000877FF5CF8091A0008F778093A000C1CF59
:1003E0008091A0008F7DF9CF8091A000877FF5CF0D
:1003F000809120018F7780932001B3CF80912001DD
:100400008F7DF9CF80912001877FF5CF4E2BB8CF1C
:100410003FB7F89480919C0290919D02A0919E021A
:10042000B0919F0226B5A89B05C02F3F19F00196F9
:10043000A11DB11D3FBFBA2FA92F982F8827BC013E
:10044000CD01620F711D811D911D42E0660F771F66
:10045000881F991F4A95D1F708958F929F92AF9266
:10046000BF92CF92DF92EF92FF924B015C010E940C
:1004700008026B017C010E9408026C197D098E093B
:100480009F09683E734081059105A8F321E0821A17
:100490009108A108B10888EEC80E83E0D81EE11CBF
:1004A000F11C81149104A104B10429F7FF90EF908D
:1004B000DF90CF90BF90AF909F908F900895AF92B4
:1004C000BF92CF92DF92EF92FF920F931F93CF9341
:1004D000DF936C017B018B01040F151FEB015E01A3
:1004E000AE18BF08C017D10759F06991D601ED9138
:1004F000FC910190F081E02DC6011995892B79F7C7
:10050000C501DF91CF911F910F91FF90EF90DF9088
:10051000CF90BF90AF900895FC01538D448D252F4F
:1005200030E0842F90E0821B930B541710F0CF968D
:10053000089501970895FC01918D828D981761F0BF
:10054000A28DAE0FBF2FB11D5D968C91928D9F5FD6
:100550009F73928F90E008958FEF9FEF0895FC01B5
:10056000918D828D981731F0828DE80FF11D858D68
:1005700090E008958FEF9FEF0895FC01918D228DFB
:10058000892F90E0805C9F4F821B91098F73992780
:10059000089580EA92E00E94BD0221E0892B09F4CF
:1005A00020E0822F0895FC01A48DA80FB92FB11D62
:1005B000A35ABF4F2C91848D90E001968F73992799
:1005C000848FA689B7892C93A089B1898C91837077
:1005D00080648C93938D848D981306C00288F38970
:1005E000E02D80818F7D80830895EF92FF920F939D
:1005F0001F93CF93DF93EC0181E0888F9B8D8C8DCF
:1006000098131AC0E889F989808185FF15C09FB7C2
:10061000F894EE89FF896083E889F9898081837085
:10062000806480839FBF81E090E0DF91CF911F9134
:100630000F91FF90EF900895F62E0B8D10E00F5F55
:100640001F4F0F731127E02E8C8D8E110CC00FB62B
:1006500007FCFACFE889F989808185FFF5CFCE01C3
:100660000E94D302F1CFEB8DEC0FFD2FF11DE35A69
:10067000FF4FF0829FB7F8940B8FEA89FB89808146
:100680008062CFCFCF93DF93EC01888D8823B9F0C0
:10069000AA89BB89E889F9898C9185FD03C080818D
:1006A00086FD0DC00FB607FCF7CF8C9185FFF2CF0A
:1006B000808185FFEDCFCE010E94D302E9CFDF918B
:1006C000CF91089580E090E0892B29F00E94C90223
:1006D00081110E94000080E090E0892B49F080E0C9
:1006E00090E0892B29F00E94000081110E940000F7
:1006F00080E090E0892B49F080E090E0892B29F0A0
:100700000E94000081110E94000080E090E0892B8F
:1007100049F080E090E0892B29F00E9400008111CF
:100720000C94000008958EBD00000DB407FEFDCFAF
:100730008EB508951F93CF93DF93182FC6E4D4E0AE
:1007400060E088890E947C0183E00E949303812FEE
:100750000E94930380E00E949303182F61E0888930
:100760000E947C01812FDF91CF911F910895FF920C
:100770000F931F93CF93DF93F82E062F142FC6E409
:10078000D4E060E088890E947C0185E00E949303A8
:100790008F2D0E949303802F0E949303812F0E942C
:1007A000930361E08889DF91CF911F910F91FF90B2
:1007B0000C947C01CF93C82F482F60EE8FE00E94ED
:1007C000B7038FE00E949A03982F907E81E09C13DC
:1007D00001C080E0CF910895FF920F931F93CF93B4
:1007E000DF93C82FF62E172F042F60E08091560458
:1007F0000E947C0182E00E9493038C2F0E9493034D
:10080000CF2DD12F0C0F1D2F111DC017D10721F097
:1008100089910E949303F9CF61E080915604DF91A2
:10082000CF911F910F91FF900C947C01CF93DF9398
:1008300000D01F92CDB7DEB7613011F52C833B831A
:100840009A0144275527922F990F990F990F907E5F
:10085000622F63706860962B9A8375E036952795B2
:100860007A95E1F7298344E0BE016F5F7F4F0E94D4
:10087000EC030F900F900F900F90DF91CF910895A0
:10088000B90193E0769567959A95E1F7698322958A
:10089000220F207E2A831C821B82E5CF0F931F9399
:1008A000CF93DF93082F162FC6E4D4E060E0888949
:1008B0000E947C0182E00E949303802F0E94930398
:1008C000812F0E94930361E08889DF91CF911F916E
:1008D0000F910C947C016F927F928F92AF92BF9296
:1008E000CF92DF92EF92FF920F931F93CF93DF93FC
:1008F00000D0CDB7DEB710924604609347047093E2
:1009000048048093490490934A0440934B04F901AE
:10091000ACE4B4E0C901089621912D93E817F907DA
:10092000D9F7D12CC12C6090510270905202809066
:1009300053025E0184E0A80EB11C69827A828B8228
:100940008E010F5F1F4FF801F1908F018F2D0E94D4
:100950009A0383FD1DC011E01F0D80E0FFEFCF1A49
:10096000DF0A8230D9F482E3C816D10431F70F9040
:100970000F900F90DF91CF911F910F91FF90EF900B
:10098000DF90CF90BF90AF908F907F906F90089541
:100990000A151B05C1F610E082E0E0CF92E3C9160C
:1009A000D10429F340914B046CE474E085E0810F9D
:1009B0000E94EC0380915404813029F480914B040F
:1009C000806480934B0460914B0484E0810F0E940B
:1009D0004E042091470430914804409149045091BD
:1009E0004A0460914604812F0E94160448E068E0A2
:1009F0008FEF810F0E94B70382E3E82EF12C812F45
:100A00000E949A0383FFB3CFE1E0EE1AF108B9F731
:100A1000AECFFC016431710509F054C081E09081D2
:100A2000911101C080E08093770281E09181911162
:100A300001C080E080937E0281E09281911101C02B
:100A400080E080937D0281E09381911101C080E07C
:100A500080937C0281E09481911101C080E08093B9
:100A60007B0285818093870281E09681911101C08C
:100A700080E080938E028781908590931902809305
:100A800018028185928590937A02809379028385FA
:100A900094859093400280933F0285858093500215
:100AA000868580934702878580938F028089809313
:100AB00046028189809345028289938990934402FA
:100AC0008093430208951F920F920FB60F92112444
:100AD0002F933F938F939F93AF93BF9380919802EF
:100AE00090919902A0919A02B0919B023091970245
:100AF00023E0230F2D3758F50196A11DB11D20933A
:100B000097028093980290939902A0939A02B093CF
:100B10009B0280919C0290919D02A0919E02B091B7
:100B20009F020196A11DB11D80939C0290939D028E
:100B3000A0939E02B0939F02BF91AF919F918F911E
:100B40003F912F910F900FBE0F901F90189526E8A0
:100B5000230F0296A11DB11DD2CF1F920F920FB687
:100B60000F9211240BB60F922F933F934F935F93E5
:100B70006F937F938F939F93AF93BF93EF93FF9365
:100B800080EA92E00E94D302FF91EF91BF91AF9172
:100B90009F918F917F916F915F914F913F912F9195
:100BA0000F900BBE0F900FBE0F901F9018951F92C5
:100BB0000F920FB60F9211240BB60F922F938F93B3
:100BC0009F93EF93FF93E091B002F091B102808187
:100BD000E091B602F091B70282FD1DC09081809134
:100BE000B9028F5F8F732091BA02821741F0E091B2
:100BF000B902F0E0E056FD4F958F8093B902FF9166
:100C0000EF919F918F912F910F900BBE0F900FBE80
:100C10000F901F9018958081F2CFCF93DF93E0EA79
:100C2000F2E01382128288EE93E0A0E0B0E08483C9
:100C30009583A683B78388E692E09183808385ECD1
:100C400090E09587848784EC90E09787868780EC96
:100C500090E0918B808B81EC90E0938B828B82EC87
:100C600090E0958B848B86EC90E0978B868B118E31
:100C7000128E138E148EC6E4D4E08AE0888B0E9414
:100C80005D0161E088890E947C0110923D03109211
:100C90003F0410923E0410924104109240041092BE
:100CA0004304109242041092450410924404DF91D0
:100CB000CF910895CF93DF93CDB7DEB7E4970FB60A
:100CC000F894DEBF0FBECDBF789484B5826084BD3A
:100CD00084B5816084BD85B5826085BD85B5816040
:100CE00085BD80916E00816080936E0010928100BE
:100CF0008091810082608093810080918100816079
:100D00008093810080918000816080938000809139
:100D1000B10084608093B1008091B00081608093C5
:100D2000B000809191008260809391008091910049
:100D30008160809391008091900081608093900009
:100D40008091A10082608093A1008091A1008160C8
:100D50008093A1008091A00081608093A000809189
:100D60002101826080932101809121018160809323
:100D700021018091200181608093200180917A007F
:100D8000846080937A0080917A00826080937A00F8
:100D900080917A00816080937A0080917A008068E7
:100DA00080937A001092C100E091B002F091B102FC
:100DB00082E08083E091AC02F091AD021082E0917C
:100DC000AE02F091AF0280E180831092B802E09110
:100DD000B402F091B50286E08083E091B202F09116
:100DE000B302808180618083E091B202F091B3020E
:100DF000808188608083E091B202F091B3028081AB
:100E000080688083E091B202F091B30280818F7D8F
:100E1000808380EA92E0909341048093400489E0CB
:100E200095E09093430480934204109245041092FD
:100E300044045BEFA52E51E0B52E61E4E62E62E09E
:100E4000F62EDFB6F89480917602811122C0F5016A
:100E50008491F7019491E82FF0E0EE0FFF1FE45525
:100E6000FE4FA591B4918C91982321F461E085E324
:100E70000E947C0185E30E945D018CB580618CBD80
:100E80008CB580648CBD84E30E945D0183E30E9485
:100E90005D01809176028F5F80937602DFBE60E015
:100EA000809156040E947C0180EC0E94930361E0D3
:100EB000809156040E947C016AE070E080E090E03E
:100EC0000E942D0280E80E94DA038111A7C360E02E
:100ED0008AE20E944E0460EF89E20E944E0466E8B6
:100EE00088E20E944E0420E030E0A90161E080E247
:100EF0000E94160420E030E0A90161E084E20E9433
:100F0000160420E030E0A90161E080E00E941604B0
:100F100020E030E0A90160E084E00E94160420E0B7
:100F200030E0A90161E088E00E94160420E030E092
:100F3000A90160E080E10E94160420E030E0A901F0
:100F400061E084E10E94160420E030E0A90160E045
:100F500088E10E94160410E360E0812F0E944E0495
:100F600060E080E1810F0E944E0460E080E2810F2A
:100F70000E944E041F5F1E3379F760E080E60E94F6
:100F80004E0460E080E70E944E0463E08BE20E9422
:100F90004E0444E064E680E60E94B70340E060E669
:100FA00080E70E94B70380E00E94DA03811136C314
:100FB0009AE0892E912C22E3A22EB12C3DEF332E04
:100FC000222423948E010F5E1F4F1CAB0BAB8FB7F7
:100FD000F894409098025090990260909A02709014
:100FE0009B028FBF8091920290919302A0919402F4
:100FF000B0919502A3019201281B390B4A0B5B0BA0
:10100000DA01C9010B97A105B10508F4CBC18091A4
:10101000770220E032E0811102C028E032E048E0AF
:101020006CE370E080E090E00E946B046091180235
:101030007091190290E080E00E94700B6B017C01BE
:101040002DEE30EF47ED5BE30E94FA0B0E94410B5F
:101050006093110222E430E645EE5BE3C701B6017E
:101060000E94FA0B0E94410B6093120220E132E0D1
:1010700048E063EF70E080E090E00E946B046091D4
:10108000790270917A02D090780211E01D0D1093D0
:10109000780290E080E00E94700B6B017C012BECE9
:1010A00031EA45E85EE30E94FA0B0E94410B60932F
:1010B0001C022CE53FE842E85EE3C701B6010E944E
:1010C000FA0B0E94410B60931D0210931B022AE150
:1010D00032E048E061EA71E080E090E00E946B0459
:1010E00010922002109221022FE132E047E064ECDE
:1010F00070E080E090E00E946B04809190029091FB
:101100009102B4010E94200B009709F0F0C02091D9
:101110007E02222311F084E090E020917D022111D3
:10112000806220917C022111826020917B0221113A
:1011300080648093260226E232E043E06AE172E0B6
:1011400080E090E00E946B048FB7F8944091980281
:101150005091990260919A0270919B028FBF909179
:10116000880280918702811116C0C0908302D090BE
:101170008402E0908502F09086028A019B010C199E
:101180001D092E093F09053F11402105310508F0D1
:101190004CC2892F0AC0409383025093840260930B
:1011A000850270938602981316C0C0907F02D0907B
:1011B0008002E0908102F09082028A019B010C196A
:1011C0001D092E093F09083512402105310528F176
:1011D000882309F42DC2823009F455C1833009F403
:1011E00056C121E1813009F44FC1981352C191EFEA
:1011F00090932A028093880240937F02509380024A
:10120000609381027093820229E232E042E066EF4D
:1012100071E080E090E00E946B0480912D0290E0EC
:10122000807F9927C096836080932D022BE232E065
:1012300048E06EE971E080E090E00E946B04BBE85A
:10124000B093360223E332E048E064EC72E080E0E1
:1012500090E00E946B042BE332E042E060EC70E02F
:1012600080E090E00E946B0480913B028F5F806F72
:1012700080933B022DE332E042E067ED70E080E0D6
:1012800090E00E946B0480913D028F5F80933D024D
:1012900060913F027091400290E080E00E94700BEC
:1012A00023E333E343EF5FE30E94FA0B6B017C011E
:1012B00020E030E04AEF55E40E943C0B60E47FE11F
:1012C00087FF04C0C701B6010E94410B60938902E9
:1012D00070938A0260938B0270938C0229E832E04B
:1012E00045E069E473E080E090E00E946B04C09008
:1012F0009002D0909102C601B5010E94200B892B6B
:1013000089F480918E02882309F4C5C0EEEFE09342
:10131000410221E432E042E06FE473E080E090E0DB
:101320000E946B04C60164E670E00E94200B892BCA
:1013300051F580915002809348028091470280933A
:10134000490280918F0280934A02809146028093E5
:101350004B0280914502F0E18F9FC00111248F6004
:1013600080934C02909143028091440290934D02ED
:1013700080934E0228E432E048E06EE973E080E0BA
:1013800090E00E946B040FEFC01AD00AD092910235
:10139000C092900240929202509293026092940204
:1013A000709295028091400490914104892B09F438
:1013B000B9C08091400490914104DC01ED91FC9111
:1013C0000084F185E02D1995181619060CF0AAC0B5
:1013D0008091400490914104DC01ED91FC910284E4
:1013E000F385E02D1995811185C0E0904204F090BD
:1013F0004304E114F10439F48091440490914504CC
:10140000892B09F465C0CDB6DEB660913E047091BB
:101410003F04EDB7FEB7E61BF70B0FB6F894FEBF1F
:101420000FBEEDBF8DB79EB701966115710509F42A
:1014300042C050E040E030E020E026173707E8F5F2
:10144000D901A25CBC4F7C90D901A70DB11D6A17D0
:101450007B0718F4F1E07F122EC02F5F3F4FDC01B5
:10146000A40FB51F66246394AD01481B590B671484
:10147000A8F42F5F3F4FA901435C5C4FFA01408104
:101480004D936394F1CF21E220932902AECE21E364
:10149000FBCF92EFADCE309241023BCFFFEF7F16F4
:1014A00061F26217730749F2DC01A40FB51F1C92A9
:1014B0004F5F5F4FC2CF50E040E0E114F10479F09C
:1014C000BA01F70119950FB6F894DEBE0FBECDBE76
:1014D00010923F0410923E0410923D036ACFE091B7
:1014E0004404F0914504309771F3BC018DE393E01F
:1014F0001995E9CF20913E0430913F04A9014F5F37
:101500005F4F4F3F510509F050F450933F04409313
:101510003E04235C3C4FD90111968C934ACF209214
:101520003D0347CF88E0E4E5F2E0DE0191960190CB
:101530000D928A95E1F79E012F5D3F4F48E060E1F3
:1015400075E080E090E00E946B0488E0ECE5F2E05A
:10155000DE01599601900D928A95E1F79E01275E72
:101560003F4F48E06AE673E080E090E00E946B0441
:1015700088E0EBA9FCA911928A95E9F782E0C82ED0
:10158000CA8A9E012F5E3F4F48E068ED73E080E01D
:1015900090E00E946B0482E189878AE88B878DED59
:1015A0008C8781EF8D8785E18E8780E38F87C88A5E
:1015B000D0909602DA869E01275F3F4F48E06FE2A7
:1015C00071E080E090E00E946B041B821C821D820F
:1015D0001E82C982DA82DB82DE82DF82D8869E01A9
:1015E0002F5F3F4F48E069EF73E080E090E00E949A
:1015F0006B0439A61AA61BA61CA61DA69E01275D74
:101600003F4F45E062E072E080E090E00E946B04B2
:10161000D394D09296020E946203D9CC64E670E023
:1016200080E090E00E942D020CCC992309F4B1CD0A
:1016300080E88093290280EF80932A0280E0DACD4F
:10164000AA1BBB1B51E107C0AA1FBB1FA617B707E8
:1016500010F0A61BB70B881F991F5A95A9F7809504
:101660009095BC01CD010895EE0FFF1F881F8BBF21
:101670000790F691E02D19940E94AD0B08F481E0DB
:1016800008950E94D90B88F09F5798F0B92F992799
:10169000B751B0F0E1F0660F771F881F991F1AF05D
:1016A000BA95C9F714C0B13091F00E94F30BB1E0C4
:1016B00008950C94F30B672F782F8827B85F39F0C3
:1016C000B93FCCF3869577956795B395D9F73EF4F6
:1016D00090958095709561957F4F8F4F9F4F08959E
:1016E000E89409C097FB3EF49095809570956195BC
:1016F0007F4F8F4F9F4F9923A9F0F92F96E9BB2772
:101700009395F695879577956795B795F111F8CFED
:10171000FAF4BB0F11F460FF1BC06F5F7F4F8F4F58
:101720009F4F16C0882311F096E911C0772321F04E
:101730009EE8872F762F05C0662371F096E8862FE6
:1017400070E060E02AF09A95660F771F881FDAF73D
:10175000880F9695879597F90895990F0008550F6A
:10176000AA0BE0E8FEEF16161706E807F907C0F027
:1017700012161306E407F50798F0621B730B840B2F
:10178000950B39F40A2661F0232B242B252B21F409
:1017900008950A2609F4A140A6958FEF811D811DA9
:1017A000089557FD9058440F551F59F05F3F71F051
:1017B0004795880F97FB991F61F09F3F79F08795B8
:1017C0000895121613061406551FF2CF4695F1DF41
:1017D00008C0161617061806991FF1CF86957105D1
:1017E000610508940895E894BB2766277727CB0105
:1017F00097F908950E940D0C0C947E0C0E94700CB9
:1018000038F00E94770C20F0952311F00C94670CAF
:101810000C946D0C11240C94F40B0E94D10B70F3FA
:10182000959FC1F3950F50E0551F629FF001729F85
:10183000BB27F00DB11D639FAA27F00DB11DAA1F94
:10184000649F6627B00DA11D661F829F2227B00DE1
:10185000A11D621F739FB00DA11D621F839FA00D6C
:10186000611D221F749F3327A00D611D231F849FBC
:10187000600D211D822F762F6A2F11249F57504013
:101880009AF0F1F088234AF0EE0FFF1FBB1F661F8E
:10189000771F881F91505040A9F79E3F510580F057
:1018A0000C94670C0C94F40B5F3FE4F3983ED4F374
:1018B000869577956795B795F795E7959F5FC1F7FB
:1018C000FE2B880F911D9695879597F9089597F9A6
:1018D0009F6780E870E060E008959FEF80EC0895D6
:1018E00000240A94161617061806090608950024FF
:1018F0000A9412161306140605060895092E039479
:10190000000C11F4882352F0BB0F40F4BF2B11F4EC
:1019100060FF04C06F5F7F4F8F4F9F4F0895F89413
:02192000FFCFF7
:1019220000000000000010000000000000000A009B
:10193200000000C0F0C4FFFFFD0200000000918320
:10194200FDFC0000FFF10000F780F000E0B3FCF0C6
:101952004300658BFF63CD5D37CDA8F0FFC3FFC8A1
:1019620000FEFFE7070103280B10000D1FDF07F23F
:10197200143040504000100000000000020200003D
:101982000000000000000000F5025F028C0242032A
:06199200BD029B02AF0242
:00000001FF
