:100000000C945D000C9485000C9485000C94850084
:100010000C9485000C9485000C9485000C9485004C
:100020000C9485000C9485000C9485000C9485003C
:100030000C9485000C9485000C9485000C9485002C
:100040000C9427040C9485000C9497040C94710470
:100050000C9485000C9485000C9485000C9485000C
:100060000C9485000C94850000000008000201003B
:100070000003040700000000000000000000000072
:10008000250028002B0000000000240027002A0083
:10009000040404040404040402020202020203032E
:1000A0000303030301020408102040800102040836
:1000B0001020010204081020C90411241FBECFEF34
:1000C000D8E0DEBFCDBF11E0A0E0B1E0EAE4F6E1A8
:1000D00002C005900D92A637B107D9F723E0A6E735
:1000E000B1E001C01D92A735B207E1F710E0CDE500
:1000F000D0E004C02197FE010E94CA09CC35D10787
:10010000C9F70E9416050C94230B0C94000090E094
:10011000FC01EC55FF4F249180579F4FFC018491C7
:10012000882399F090E0880F991FFC01EA57FF4F50
:10013000A591B491FC01E458FF4F859194918FB73C
:10014000F894EC91E22BEC938FBF089590E0FC01C2
:10015000E859FF4F2491FC01EC55FF4F3491FC010D
:10016000E057FF4FE491EE23C9F0222339F023300A
:1001700001F1A8F4213019F1223029F1F0E0EE0F5D
:10018000FF1FE458FF4FA591B4918FB7F894EC91FD
:10019000611126C030953E233C938FBF08952730D0
:1001A000A9F02830C9F0243049F7809180008F7D74
:1001B00003C0809180008F7780938000DFCF84B56B
:1001C0008F7784BDDBCF84B58F7DFBCF8091B0006E
:1001D0008F778093B000D2CF8091B0008F7DF9CF20
:1001E0003E2BDACF3FB7F89480919C0190919D010E
:1001F000A0919E01B0919F0126B5A89B05C02F3FFD
:1002000019F00196A11DB11D3FBFBA2FA92F982F3C
:100210008827BC01CD01620F711D811D911D42E037
:10022000660F771F881F991F4A95D1F708958F92FF
:100230009F92AF92BF92CF92DF92EF92FF924B01CB
:100240005C010E94F2006B017C010E94F2006C19BB
:100250007D098E099F09683E734081059105A8F3C9
:1002600021E0821A9108A108B10888EEC80E83E047
:10027000D81EE11CF11C81149104A104B10429F7DA
:10028000FF90EF90DF90CF90BF90AF909F908F90B6
:100290000895AF92BF92CF92DF92EF92FF920F93A9
:1002A0001F93CF93DF936C017B018B01040F151F0C
:1002B000EB015E01AE18BF08C017D10759F0699174
:1002C000D601ED91FC910190F081E02DC6010995D8
:1002D000892B79F7C501DF91CF911F910F91FF9085
:1002E000EF90DF90CF90BF90AF900895FC01538DB9
:1002F000448D252F30E0842F90E0821B930B541700
:1003000010F0CF96089501970895FC01918D828D8C
:10031000981761F0A28DAE0FBF2FB11D5D968C9125
:10032000928D9F5F9F73928F90E008958FEF9FEF64
:100330000895FC01918D828D981731F0828DE80F20
:10034000F11D858D90E008958FEF9FEF0895FC01DA
:10035000918D228D892F90E0805C9F4F821B9109A7
:100360008F739927089580EA91E00E94A70121E008
:10037000892B09F420E0822F089580E090E0892BFA
:1003800029F00E94B30181110C9400000895FC0132
:10039000A48DA80FB92FB11DA35ABF4F2C91848DE6
:1003A00090E001968F739927848FA689B7892C9343
:1003B000A089B1898C91837080648C93938D848D96
:1003C000981306C00288F389E02D80818F7D808399
:1003D0000895EF92FF920F931F93CF93DF93EC0159
:1003E00081E0888F9B8D8C8D98131AC0E889F989DC
:1003F000808185FF15C09FB7F894EE89FF896083DF
:10040000E889F98980818370806480839FBF81E05F
:1004100090E0DF91CF911F910F91FF90EF900895A1
:10042000F62E0B8D10E00F5F1F4F0F731127E02E7C
:100430008C8D8E110CC00FB607FCFACFE889F989B4
:10044000808185FFF5CFCE010E94C701F1CFEB8DF2
:10045000EC0FFD2FF11DE35AFF4FF0829FB7F89488
:100460000B8FEA89FB8980818062CFCFCF93DF93A6
:10047000EC01888D8823B9F0AA89BB89E889F989BC
:100480008C9185FD03C0808186FD0DC00FB607FCF1
:10049000F7CF8C9185FFF2CF808185FFEDCFCE0124
:1004A0000E94C701E9CFDF91CF9108958EBD000072
:1004B0000DB407FEFDCF8EB508951F93CF93DF9344
:1004C000182FC6E4D3E060E088890E94A60083E08C
:1004D0000E945602812F0E94560280E00E9456021E
:1004E000182F61E088890E94A600812FDF91CF91AB
:1004F0001F910895FF920F931F93CF93DF93F82ED0
:10050000062F142FC6E4D3E060E088890E94A6007D
:1005100085E00E9456028F2D0E945602802F0E9475
:100520005602812F0E94560261E08889DF91CF91A7
:100530001F910F91FF900C94A600CF93C82F482FC6
:1005400060EE8FE00E947A028FE00E945D02982F99
:10055000907E81E09C1301C080E0CF910895FF92CE
:100560000F931F93CF93DF93C82FF62E172F042FCF
:1005700060E0809156030E94A60082E00E9456022D
:100580008C2F0E945602CF2DD12F0C0F1D2F111D25
:10059000C017D10721F089910E945602F9CF61E07E
:1005A00080915603DF91CF911F910F91FF900C9492
:1005B000A600CF93DF9300D000D0CDB7DEB7613077
:1005C00011F52C833B839A0144275527922F990FCD
:1005D000990F990F907E622F63706860962B9A83B3
:1005E00075E0369527957A95E1F7298344E0BE01B9
:1005F0006F5F7F4F0E94AF020F900F900F900F9090
:10060000DF91CF910895B90193E0769567959A951A
:10061000E1F769832295220F207E2A831C821B82A8
:10062000E5CF0F931F93CF93DF93082F162FC6E4C8
:10063000D3E060E088890E94A60082E00E94560212
:10064000802F0E945602812F0E94560261E0888905
:10065000DF91CF911F910F910C94A6006F927F9222
:100660008F92AF92BF92CF92DF92EF92FF920F9351
:100670001F93CF93DF9300D01F92CDB7DEB71092B8
:100680004603609347037093480380934903909314
:100690004A0340934B03F901ACE4B3E0C901089667
:1006A00021912D93E817F907D9F7D12CC12C60902F
:1006B000510170905201809053015E0184E0A80EB8
:1006C000B11C69827A828B828E010F5F1F4FF80105
:1006D000F1908F018F2D0E945D0283FD1DC011E0FE
:1006E0001F0D80E0FFEFCF1ADF0A8230D9F482E3DA
:1006F000C816D10431F70F900F900F90DF91CF9172
:100700001F910F91FF90EF90DF90CF90BF90AF902F
:100710008F907F906F9008950A151B05C1F610E029
:1007200082E0E0CF92E3C916D10429F340914B0354
:100730006CE473E085E0810F0E94AF028091540366
:10074000813029F480914B03806480934B03609146
:100750004B0384E0810F0E941103209147033091E5
:1007600048034091490350914A0360914603812F09
:100770000E94D90248E068E08FEF810F0E947A0260
:1007800082E3E82EF12C812F0E945D0283FFB3CF1C
:10079000E1E0EE1AF108B9F7AECFFC016431710562
:1007A00009F054C081E09081911101C080E08093F4
:1007B000770181E09181911101C080E080937E01F9
:1007C00081E09281911101C080E080937D0181E000
:1007D0009381911101C080E080937C0181E094813C
:1007E000911101C080E080937B0185818093870116
:1007F00081E09681911101C080E080938E01878114
:10080000908590931901809318018185928590932A
:100810007A01809379018385948590934001809338
:100820003F018585809350018685809347018785A8
:1008300080938F018089809346018189809345014F
:1008400082899389909344018093430108951F9274
:100850000F920FB60F9211242F933F938F939F9374
:10086000AF93BF938091980190919901A0919A01C3
:10087000B0919B013091970123E0230F2D3758F55C
:100880000196A11DB11D209397018093980190932B
:100890009901A0939A01B0939B0180919C01909142
:1008A0009D01A0919E01B0919F010196A11DB11DD6
:1008B00080939C0190939D01A0939E01B0939F0112
:1008C000BF91AF919F918F913F912F910F900FBE4C
:1008D0000F901F90189526E8230F0296A11DB11DB9
:1008E000D2CF1F920F920FB60F9211242F933F93E6
:1008F0004F935F936F937F938F939F93AF93BF9328
:10090000EF93FF9380EA91E00E94C701FF91EF917E
:10091000BF91AF919F918F917F916F915F914F9117
:100920003F912F910F900FBE0F901F9018951F921F
:100930000F920FB60F9211242F938F939F93EF93E3
:10094000FF93E091B001F091B1018081E091B60197
:10095000F091B70182FD1BC090818091B9018F5F3A
:100960008F732091BA01821741F0E091B901F0E054
:10097000E056FE4F958F8093B901FF91EF919F91C3
:100980008F912F910F900FBE0F901F90189580811F
:10099000F4CFCF93DF93E0EAF1E01382128288EE86
:1009A00093E0A0E0B0E084839583A683B78388E6D4
:1009B00091E09183808385EC90E09587848784EC37
:1009C00090E09787868780EC90E0918B808B81EC1C
:1009D00090E0938B828B82EC90E0958B848B86ECFD
:1009E00090E0978B868B118E128E138E148EC6E438
:1009F000D3E08AE0888B0E94870061E088890E94AA
:100A0000A60010923D0210923F0310923E031092F6
:100A1000410310924003109243031092420310923C
:100A2000450310924403DF91CF910895CF93DF9354
:100A3000CDB7DEB7AD970FB6F894DEBF0FBECDBF12
:100A4000789484B5826084BD84B5816084BD85B5A9
:100A5000826085BD85B5816085BD80916E008160B5
:100A600080936E001092810080918100826080935B
:100A7000810080918100816080938100809180005D
:100A80008160809380008091B10084608093B10088
:100A90008091B00081608093B00080917A00846082
:100AA00080937A0080917A00826080937A008091AE
:100AB0007A00816080937A0080917A0080688093C8
:100AC0007A001092C100E091B001F091B10182E092
:100AD0008083E091AC01F091AD011082E091AE0114
:100AE000F091AF0180E180831092B801E091B401F0
:100AF000F091B50186E08083E091B201F091B301FD
:100B0000808180618083E091B201F091B3018081A6
:100B100088608083E091B201F091B30180818068A8
:100B20008083E091B201F091B30180818F7D808359
:100B300080EA91E090934103809340038DEC93E031
:100B40009093430380934203109245031092440311
:100B50003AE9A32E30E0B32E4EEAE42E40E0F42E24
:100B6000DFB6F89480917601811122C0F50184915D
:100B7000F7019491E82FF0E0EE0FFF1FEA57FF4FC7
:100B8000A591B4918C91982321F461E08AE00E94B0
:100B9000A6008AE00E9487008CB580618CBD8CB570
:100BA00080648CBD8DE00E9487008BE00E948700EE
:100BB000809176018F5F80937601DFBE60E0809147
:100BC00056030E94A60080EC0E94560261E08091CC
:100BD00056030E94A6006AE070E080E090E00E9468
:100BE000170180E80E949D028111AEC360E08AE295
:100BF0000E94110360EF89E20E94110366E888E217
:100C00000E94110320E030E0A90161E080E20E942F
:100C1000D90220E030E0A90161E084E20E94D9021B
:100C200020E030E0A90161E080E00E94D90220E0EC
:100C300030E0A90160E084E00E94D90220E030E0C9
:100C4000A90161E088E00E94D90220E030E0A9011A
:100C500060E080E10E94D90220E030E0A90161E07B
:100C600084E10E94D90220E030E0A90160E088E13F
:100C70000E94D90210E360E0812F0E94110360E01E
:100C800080E1810F0E94110360E080E2810F0E94E9
:100C900011031F5F1E3379F760E080E60E941103A5
:100CA00060E080E70E94110363E08BE20E94110381
:100CB00044E064E680E60E947A0240E060E680E775
:100CC0000E947A0280E00E949D0281113DC35E0174
:100CD000F1E1AF0EB11C94E6292E312C80E0882E74
:100CE00080E0982E8FB7F894409098015090990129
:100CF00060909A0170909B018FBF809192019091BA
:100D00009301A0919401B091950173016201C81AF9
:100D1000D90AEA0AFB0AD701C6010B97A105B1055A
:100D200008F4CEC18091770120E031E0811102C04A
:100D300028E031E048E06CE370E080E090E00E9461
:100D40002E03609118017091190190E080E00E94DB
:100D5000040A6B017C012DEE30EF47ED5BE30E944E
:100D60008E0A0E94D5096093110122E430E645EE17
:100D70005BE3C701B6010E948E0A0E94D509609309
:100D8000120120E131E048E063EF70E080E090E0A4
:100D90000E942E036091790170917A01109178017F
:100DA0001F5F1093780190E080E00E94040A6B01BD
:100DB0007C012BEC31EA45E85EE30E948E0A0E943A
:100DC000D50960931C012CE53FE842E85EE3C701CA
:100DD000B6010E948E0A0E94D50960931D011093EE
:100DE0001B012AE131E048E061EA71E080E090E037
:100DF0000E942E0310922001109221012FE131E078
:100E000047E064EC70E080E090E00E942E03809167
:100E10009001909191016AE070E00E94B6090097FC
:100E200009F0F4C020917E01222311F084E090E0CB
:100E300020917D012111806220917C01211182602D
:100E400020917B01211180648093260126E231E00C
:100E500043E06AE172E080E090E00E942E038FB7E9
:100E6000F894409198015091990160919A01709184
:100E70009B018FBF9091880180918701811118C0DB
:100E800000918301109184012091850130918601A8
:100E90006A017B01C01AD10AE20AF30A97018601AE
:100EA000053F11402105310508F055C2892F0AC0C0
:100EB0004093830150938401609385017093860170
:100EC000981318C000917F01109180012091810139
:100ED000309182016A017B01C01AD10AE20AF30A49
:100EE00097018601083512402105310528F1882334
:100EF00009F434C2823009F454C1833009F455C175
:100F000021E1813009F44EC1981351C191EF9093C2
:100F10002A018093880140937F0150938001609360
:100F200081017093820129E231E042E066EF71E0D5
:100F300080E090E00E942E0380912D0190E0807F60
:100F40009927C096836080932D012BE231E048E021
:100F50006EE971E080E090E00E942E03BBE8B09360
:100F6000360123E331E048E064EC72E080E090E099
:100F70000E942E032BE331E042E060EC70E080E061
:100F800090E00E942E0380913B018F5F806F8093E1
:100F90003B012DE331E042E067ED70E080E090E05E
:100FA0000E942E0380913D018F5F80933D016091EF
:100FB0003F017091400190E080E00E94040A23E329
:100FC00033E343EF5FE30E948E0A6B017C0120E074
:100FD00030E04AEF55E40E94D00960E47FE187FFEA
:100FE00004C0C701B6010E94D509609389017093BE
:100FF0008A0160938B0170938C0129E831E045E010
:1010000069E473E080E090E00E942E03009190017B
:1010100010919101C80162E370E00E94B609892B2A
:1010200089F480918E01882309F4C3C0EEEFE09328
:10103000410121E431E042E06FE473E080E090E0C0
:101040000E942E03C801B1010E94B609892B51F5F7
:10105000809150018093480180914701809349011C
:1010600080918F0180934A018091460180934B01CA
:101070008091450120E1829FC00111248F608093FF
:101080004C01909143018091440190934D018093D4
:101090004E0128E431E048E06EE973E080E090E042
:1010A0000E942E030F5F1F4F109391010093900138
:1010B0004092920150929301609294017092950136
:1010C0008091400390914103892B09F4BBC080912A
:1010D000400390914103DC01ED91FC910084F18586
:1010E000E02D0995181619060CF0ACC0809140034C
:1010F00090914103DC01ED91FC910284F385E02D98
:101100000995811186C0E0904203F0904303E114F9
:10111000F10439F48091440390914503892B09F43B
:1011200066C00DB71EB760913E0370913F03EDB7E7
:10113000FEB7E61BF70B0FB6F894FEBF0FBEEDBF70
:101140008DB79EB701966115710509F443C050E053
:1011500040E030E020E026173707F0F5D901A25C27
:10116000BD4F7C90D901A70DB11D6A177B0718F4FC
:10117000F1E07F122FC02F5F3F4FDC01A40FB51F9E
:1011800066246394AD01481B590B6714B0F42F5FBC
:101190003F4FA901435C5D4FFA0140814D93639439
:1011A000F1CF21E220932901AFCE21E3FBCF92EFD3
:1011B000AECEFDEFF09341013CCFFFEF7F1659F229
:1011C0006217730741F2DC01A40FB51F1C924F5F39
:1011D0005F4FC1CF50E040E0E114F10479F0BA0173
:1011E000F70109950FB6F8941EBF0FBE0DBF109200
:1011F0003F0310923E0310923D0269CFE0914403F9
:10120000F0914503309771F3BC018DE392E00995AD
:10121000E9CF20913E0330913F03A9014F5F5F4F1B
:101220004F3F510509F050F450933F0340933E0364
:10123000235C3D4FD90111968C9349CFB1E0B09317
:101240003D0245CF88E0E4E5F1E0DE0191960190B2
:101250000D928A95E1F79E012F5D3F4F48E060E1D6
:1012600075E080E090E00E942E0388E0ECE5F1E07C
:10127000DE01599601900D928A95E1F79E01275E55
:101280003F4F48E06AE673E080E090E00E942E0362
:1012900088E0F50111928A95E9F702E00A8B950141
:1012A00048E068ED73E080E090E00E942E0382E168
:1012B00089878AE88B878DED8C8781EF8D8785E123
:1012C0008E8780E38F87088B109196011A879E0185
:1012D000275F3F4F48E06FE271E080E090E00E94BE
:1012E0002E031B821C821D821E8209831A831B838C
:1012F0001E831F8318879E012F5F3F4F48E069EFD1
:1013000073E080E090E00E942E03FDEFF9A71AA69B
:101310001BA61CA61DA69E01275D3F4F45E062E06F
:1013200072E080E090E00E942E031F5F1093960110
:101330008114910409F4D6CC0E94B301882309F4E6
:10134000CDCC0E940000C7CC64E670E080E090E065
:101350000E94170105CC992309F4A8CD80E8809359
:10136000290180EF80932A0180E0D3CDAA1BBB1B0B
:1013700051E107C0AA1FBB1FA617B70710F0A61B95
:10138000B70B881F991F5A95A9F780959095BC01B6
:10139000CD010895EE0FFF1F0590F491E02D099403
:1013A0000E94410A08F481E008950E946D0A88F0C5
:1013B0009F5798F0B92F9927B751B0F0E1F0660F19
:1013C000771F881F991F1AF0BA95C9F714C0B1305A
:1013D00091F00E94870AB1E008950C94870A672F64
:1013E000782F8827B85F39F0B93FCCF38695779589
:1013F0006795B395D9F73EF4909580957095619572
:101400007F4F8F4F9F4F0895E89409C097FB3EF49C
:1014100090958095709561957F4F8F4F9F4F992341
:10142000A9F0F92F96E9BB279395F69587957795BF
:101430006795B795F111F8CFFAF4BB0F11F460FF7F
:101440001BC06F5F7F4F8F4F9F4F16C0882311F0D7
:1014500096E911C0772321F09EE8872F762F05C0EB
:10146000662371F096E8862F70E060E02AF09A9586
:10147000660F771F881FDAF7880F9695879597F97B
:101480000895990F0008550FAA0BE0E8FEEF161615
:101490001706E807F907C0F012161306E407F50768
:1014A00098F0621B730B840B950B39F40A2661F0DC
:1014B000232B242B252B21F408950A2609F4A1407F
:1014C000A6958FEF811D811D089557FD9058440FFB
:1014D000551F59F05F3F71F04795880F97FB991F93
:1014E00061F09F3F79F08795089512161306140650
:1014F000551FF2CF4695F1DF08C0161617061806DD
:10150000991FF1CF86957105610508940895E894B7
:10151000BB2766277727CB0197F908950E94A10A78
:101520000C94120B0E94040B38F00E940B0B20F05D
:10153000952311F00C94FB0A0C94010B11240C94CC
:10154000880A0E94650A70F3959FC1F3950F50E0D9
:10155000551F629FF001729FBB27F00DB11D639F65
:10156000AA27F00DB11DAA1F649F6627B00DA11D0B
:10157000661F829F2227B00DA11D621F739FB00DB1
:10158000A11D621F839FA00D611D221F749F332721
:10159000A00D611D231F849F600D211D822F762FBA
:1015A0006A2F11249F5750409AF0F1F088234AF097
:1015B000EE0FFF1FBB1F661F771F881F9150504003
:1015C000A9F79E3F510580F00C94FB0A0C94880A01
:1015D0005F3FE4F3983ED4F3869577956795B7958A
:1015E000F795E7959F5FC1F7FE2B880F911D9695A4
:1015F000879597F9089597F99F6780E870E060E014
:1016000008959FEF80EC089500240A94161617069B
:1016100018060906089500240A94121613061406E3
:1016200005060895092E0394000C11F4882352F046
:10163000BB0F40F4BF2B11F460FF04C06F5F7F4FFE
:0A1640008F4F9F4F0895F894FFCFDD
:10164A0000000000000010000000000000000A0076
:10165A00000000C0F0C4FFFFFD02000000009183FB
:10166A00FDFC0000FFF10000F780F000E0B3FCF0A1
:10167A004300658BFF63CD5D37CDA8F0FFC3FFC87C
:10168A0000FEFFE7070103280B10000D1FDF07F21A
:10169A001430405040001000000000000202000018
:1016AA000000000000000000E9014901760136024D
:0616BA00A7018501990162
:00000001FF
